{
  "contractName": "dEvents",
  "abi": [
    {
      "constant": true,
      "inputs": [],
      "name": "creadorEvento",
      "outputs": [
        {
          "name": "",
          "type": "address"
        }
      ],
      "payable": false,
      "stateMutability": "view",
      "type": "function"
    },
    {
      "constant": true,
      "inputs": [
        {
          "name": "",
          "type": "uint256"
        }
      ],
      "name": "entradas",
      "outputs": [
        {
          "name": "addressComprador",
          "type": "address"
        },
        {
          "name": "dni",
          "type": "string"
        },
        {
          "name": "entradasCompradas",
          "type": "uint256"
        }
      ],
      "payable": false,
      "stateMutability": "view",
      "type": "function"
    },
    {
      "constant": true,
      "inputs": [],
      "name": "valorEntradas",
      "outputs": [
        {
          "name": "",
          "type": "uint256"
        }
      ],
      "payable": false,
      "stateMutability": "view",
      "type": "function"
    },
    {
      "constant": true,
      "inputs": [],
      "name": "nombreEvento",
      "outputs": [
        {
          "name": "",
          "type": "string"
        }
      ],
      "payable": false,
      "stateMutability": "view",
      "type": "function"
    },
    {
      "constant": true,
      "inputs": [],
      "name": "contadorEntradas",
      "outputs": [
        {
          "name": "",
          "type": "uint256"
        }
      ],
      "payable": false,
      "stateMutability": "view",
      "type": "function"
    },
    {
      "constant": true,
      "inputs": [],
      "name": "numeroEntradas",
      "outputs": [
        {
          "name": "",
          "type": "uint256"
        }
      ],
      "payable": false,
      "stateMutability": "view",
      "type": "function"
    },
    {
      "inputs": [],
      "payable": false,
      "stateMutability": "nonpayable",
      "type": "constructor"
    },
    {
      "constant": false,
      "inputs": [
        {
          "name": "numeroEntradasComprar",
          "type": "uint256"
        },
        {
          "name": "dni",
          "type": "string"
        }
      ],
      "name": "comprarEntrada",
      "outputs": [],
      "payable": true,
      "stateMutability": "payable",
      "type": "function"
    },
    {
      "constant": true,
      "inputs": [
        {
          "name": "id",
          "type": "uint256"
        }
      ],
      "name": "verEntrada",
      "outputs": [
        {
          "name": "",
          "type": "string"
        },
        {
          "name": "",
          "type": "uint256"
        }
      ],
      "payable": false,
      "stateMutability": "view",
      "type": "function"
    },
    {
      "constant": false,
      "inputs": [],
      "name": "cambiarEstado",
      "outputs": [],
      "payable": false,
      "stateMutability": "nonpayable",
      "type": "function"
    },
    {
      "constant": false,
      "inputs": [
        {
          "name": "monto",
          "type": "uint256"
        }
      ],
      "name": "retirarETH",
      "outputs": [],
      "payable": false,
      "stateMutability": "nonpayable",
      "type": "function"
    }
  ],
  "bytecode": "0x6080604052606460015561270f60025560016003556040805190810160405280600c81526020017f4c6f73205265646f6e646f7300000000000000000000000000000000000000008152506004908051906020019061005f9291906100cd565b506001600560006101000a81548160ff02191690831515021790555034801561008757600080fd5b50336000806101000a81548173ffffffffffffffffffffffffffffffffffffffff021916908373ffffffffffffffffffffffffffffffffffffffff160217905550610172565b828054600181600116156101000203166002900490600052602060002090601f016020900481019282601f1061010e57805160ff191683800117855561013c565b8280016001018555821561013c579182015b8281111561013b578251825591602001919060010190610120565b5b509050610149919061014d565b5090565b61016f91905b8082111561016b576000816000905550600101610153565b5090565b90565b610a2f806101816000396000f3006080604052600436106100a4576000357c0100000000000000000000000000000000000000000000000000000000900463ffffffff168063072a34d3146100a95780631d4ab5401461010057806322693d88146101e05780632eea781f1461020b5780635e32b2f41461022257806382fe54b5146102b25780639c246332146102df578063d22ae83514610345578063ddb335b214610370578063f2b1f05c1461041d575b600080fd5b3480156100b557600080fd5b506100be610448565b604051808273ffffffffffffffffffffffffffffffffffffffff1673ffffffffffffffffffffffffffffffffffffffff16815260200191505060405180910390f35b34801561010c57600080fd5b5061012b6004803603810190808035906020019092919050505061046d565b604051808473ffffffffffffffffffffffffffffffffffffffff1673ffffffffffffffffffffffffffffffffffffffff16815260200180602001838152602001828103825284818151815260200191508051906020019080838360005b838110156101a3578082015181840152602081019050610188565b50505050905090810190601f1680156101d05780820380516001836020036101000a031916815260200191505b5094505050505060405180910390f35b3480156101ec57600080fd5b506101f561054f565b6040518082815260200191505060405180910390f35b34801561021757600080fd5b50610220610555565b005b34801561022e57600080fd5b506102376105dc565b6040518080602001828103825283818151815260200191508051906020019080838360005b8381101561027757808201518184015260208101905061025c565b50505050905090810190601f1680156102a45780820380516001836020036101000a031916815260200191505b509250505060405180910390f35b3480156102be57600080fd5b506102dd6004803603810190808035906020019092919050505061067a565b005b61034360048036038101908080359060200190929190803590602001908201803590602001908080601f0160208091040260200160405190810160405280939291908181526020018383808284378201915050505050509192919290505050610740565b005b34801561035157600080fd5b5061035a61087c565b6040518082815260200191505060405180910390f35b34801561037c57600080fd5b5061039b60048036038101908080359060200190929190505050610882565b6040518080602001838152602001828103825284818151815260200191508051906020019080838360005b838110156103e15780820151818401526020810190506103c6565b50505050905090810190601f16801561040e5780820380516001836020036101000a031916815260200191505b50935050505060405180910390f35b34801561042957600080fd5b50610432610958565b6040518082815260200191505060405180910390f35b6000809054906101000a900473ffffffffffffffffffffffffffffffffffffffff1681565b60066020528060005260406000206000915090508060000160009054906101000a900473ffffffffffffffffffffffffffffffffffffffff1690806001018054600181600116156101000203166002900480601f01602080910402602001604051908101604052809291908181526020018280546001816001161561010002031660029004801561053f5780601f106105145761010080835404028352916020019161053f565b820191906000526020600020905b81548152906001019060200180831161052257829003601f168201915b5050505050908060020154905083565b60015481565b6000809054906101000a900473ffffffffffffffffffffffffffffffffffffffff1673ffffffffffffffffffffffffffffffffffffffff163373ffffffffffffffffffffffffffffffffffffffff161415156105b057600080fd5b600560009054906101000a900460ff1615600560006101000a81548160ff021916908315150217905550565b60048054600181600116156101000203166002900480601f0160208091040260200160405190810160405280929190818152602001828054600181600116156101000203166002900480156106725780601f1061064757610100808354040283529160200191610672565b820191906000526020600020905b81548152906001019060200180831161065557829003601f168201915b505050505081565b6000809054906101000a900473ffffffffffffffffffffffffffffffffffffffff1673ffffffffffffffffffffffffffffffffffffffff163373ffffffffffffffffffffffffffffffffffffffff161415156106d557600080fd5b6000809054906101000a900473ffffffffffffffffffffffffffffffffffffffff1673ffffffffffffffffffffffffffffffffffffffff166108fc829081150290604051600060405180830381858888f1935050505015801561073c573d6000803e3d6000fd5b5050565b6001548202341480156107565750600060025414155b801561076457508160025410155b8015610771575060008214155b80156107895750600560009054906101000a900460ff165b151561079457600080fd5b3360066000600354815260200190815260200160002060000160006101000a81548173ffffffffffffffffffffffffffffffffffffffff021916908373ffffffffffffffffffffffffffffffffffffffff160217905550816006600060035481526020019081526020016000206002018190555080600660006003548152602001908152602001600020600101908051906020019061083492919061095e565b508160025403600281905550600360008154809291906001019190505550816002541415610878576000600560006101000a81548160ff0219169083151502179055505b5050565b60035481565b60606000600660008481526020019081526020016000206001016006600085815260200190815260200160002060020154818054600181600116156101000203166002900480601f0160208091040260200160405190810160405280929190818152602001828054600181600116156101000203166002900480156109485780601f1061091d57610100808354040283529160200191610948565b820191906000526020600020905b81548152906001019060200180831161092b57829003601f168201915b5050505050915091509150915091565b60025481565b828054600181600116156101000203166002900490600052602060002090601f016020900481019282601f1061099f57805160ff19168380011785556109cd565b828001600101855582156109cd579182015b828111156109cc5782518255916020019190600101906109b1565b5b5090506109da91906109de565b5090565b610a0091905b808211156109fc5760008160009055506001016109e4565b5090565b905600a165627a7a723058202b8beba7749887ee910b89058e5834957e6f380668071b9a2f339addb77146bb0029",
  "source": "pragma solidity ^0.4.18;\n\n/*\nAutor: Javier Guajardo J.\nTwitter: @EthereumChile\nWebsite: https://ethereumchile.cl\n*/\n\ncontract dEvents {\n    \n  // VARIABLES\n\n  address public creadorEvento; // msg.sender u otro\n  uint public valorEntradas = 100 wei; // \n  uint public numeroEntradas = 9999; // 9999 entradas disponibles.\n  uint public contadorEntradas = 1; // El ID de la primera entrada será el 1\n  string public nombreEvento = \"Los Redondos\"; // nombre del evento\n  bool estadoVenta = true; // El contrato se inicia vendiendo entradas\n\n  struct Entrada { // La estructura de cada entrada\n    address addressComprador; // cuenta ethereum del comprador\n    string dni; // dni comprador\n    uint entradasCompradas; // cuantas entradas compró\n  }\n\n  mapping(uint => Entrada) public entradas;\n\n  //MODIFICADORES\n  \n  modifier soloCreador {\n    require(msg.sender == creadorEvento);\n    _;\n  }\n  \n  \n  // CONSTRUCTOR\n  function dEvents () public {\n  creadorEvento = msg.sender; // el creador del evento es quién publica el contrato. \n  }\n  \n  // FUNCIONES\n\n  function comprarEntrada(uint numeroEntradasComprar, string dni) public payable {\n  require(msg.value == (numeroEntradasComprar * valorEntradas) && numeroEntradas != 0 && numeroEntradas >= numeroEntradasComprar && numeroEntradasComprar != 0 &&  estadoVenta);\n  entradas[contadorEntradas].addressComprador = msg.sender; // address;\n  entradas[contadorEntradas].entradasCompradas = numeroEntradasComprar; // uint;\n  entradas[contadorEntradas].dni = dni; // bytes32;\n  numeroEntradas = numeroEntradas - numeroEntradasComprar;\n  contadorEntradas++;\n  if(numeroEntradas == numeroEntradasComprar)\n    estadoVenta = false;    \n  }\n\n  function verEntrada(uint id) public constant returns (string, uint) {\n  return (entradas[id].dni, entradas[id].entradasCompradas);\n  }\n\n  function cambiarEstado() public soloCreador {\n  estadoVenta = !estadoVenta;\n  }\n\n  function retirarETH(uint monto) public soloCreador {\n  creadorEvento.transfer(monto);\n  }\n\n}",
  "sourcePath": "/var/www/html/practica_blockchain/entradas/contracts/contracts/dEvents.sol",
  "compiler": {
    "name": "solc",
    "version": "0.4.25+commit.59dbf8f1.Emscripten.clang"
  },
  "schemaVersion": "3.0.16",
  "updatedAt": "2019-10-17T18:57:23.407Z",
  "devdoc": {
    "methods": {}
  },
  "userdoc": {
    "methods": {}
  }
}